:0200000480007A
:10000000171100001301014697020000938282033A
:100010007390523017050000130505449705000042
:10002000938585436358B5002320050013054500DB
:100030006FF05FFFEF004010730050106FF0DFFFB4
:080040006F0040007300203046
:10004800130101FF2326A1008327C1001387F7FFAF
:100058002326E100638C0700130000008327C100FA
:100068001387F7FF2326E100E39807FE1301010138
:10007800678000009307F02763E6A7029307F01D47
:1000880063E2B702B707001023A0A700B706001065
:100098003707001023A2B6002324C7001307100057
:1000A80023A6E70067800000B70500103706001098
:1000B800B7060010130700003703001093854500AA
:1000C800130686009386C6009308100013080028BC
:1000D800130E001E930700002320F30023A0E50061
:1000E8002320A60023A0160193871700E39607FF95
:1000F80013071700E310C7FF6780000037070010D9
:10010800130101FF130707018327C1008326070096
:10011800832707002326F1008327C100B3C7F60011
:1001280093F71700E38607FE1301010167800000BB
:10013800130101FA930710002326F100930720000A
:100148002328F100930700142324F1009307E0FF0C
:10015800232C8104232CF10037040100930720008D
:10016800232E7103232C8103232A9103232E1104A8
:10017800232A910423282105232631052324410518
:1001880023225105232061052328A1032326B10337
:10019800930C000F130C200D232EF100930B200D50
:1001A8001304F4FFEFF09FF513050000EFF0DFEF05
:1001B8000327C1019306201AB38BEB009387FBFF3B
:1001C80063F6F600B307E040232EF1000327810110
:1001D8009306201A330CEC009307FCFF63F6F60035
:1001E800B307E040232CF100832681000327C100D8
:1001F80003260101B38CEC00B386C6002324D1008A
:100208009387BCFF9306601D63F6F600B307E040D2
:100218002326F100032781009307CC03232AF1004A
:1002280093074001938DCB0363D4E7149307B0265B
:1002380063D2E71A63C08C039307CC0363CC97019E
:10024800032701019357F74133C7E700B387E74016
:100258002328F100832681009307F02763FAD71239
:100268008327010193D7F74193F747009387E7FF67
:100278002328F1008327C100130B400F9309401472
:1002880093C7F7FF93D7F74193F727009387F7FFB3
:100298002326F100930700141309C00E930AC01314
:1002A800930C000F2324F10093C4FBFF93D4F44173
:1002B8009307001EB3F49B0063D4B701930D001E8F
:1002C800130A000163D4B403130DA00013050D0035
:1002D8001306040093850400130D1D00EFF09FD949
:1002E800E3164DFF93841400E3909DFE832D410196
:1002F8009344FCFF93D4F4419307001EB3749C000D
:1003080063D4B701930D001E130A602763D4B403A6
:10031800130D002713050D00130604009385040030
:10032800130D1D00EFF01FD5E3164DFF9384140045
:10033800E3909DFE6356690393840A0063DE3A01E5
:100348001385040013060400930509009384140020
:10035800EFF05FD2E39634FF13091900E31E69FD3D
:1003680037650100130505F9EFF09FCD6FF09FE3A6
:10037800E3C27CEFE3C09DEF032681009307F027DB
:1003880063F0C7089307E0FF2328F1006FF09FEEA2
:10039800938AC6FF1389CCFF13C7FAFF9347F9FF67
:1003A8001357F74193D7F7419389460093060028DE
:1003B800B3FAEA003379F90063D4360193090028C7
:1003C800138B4C009307001EE3D067EF130B001E3E
:1003D8006FF09FED1389CCFF9347F9FF93D7F7414F
:1003E8003379F900138B4C009307001E930AC7FF5B
:1003F80093094700E3DA67EB130B001E6FF0DFEA9F
:10040800832501011389CCFF930AC6FF93D6F541D2
:100418009347F9FFB3C5D50013C7FAFF93D7F74140
:10042800B386D5401357F7413379F900138B4C0045
:100438002328D1009307001E93094600B3FAEA0067
:0C044800E3D467E7130B001E6FF01FE603
:040000058000000077
:00000001FF
